{
  "_format": "hh-sol-artifact-1",
  "contractName": "Staking",
  "sourceName": "contracts/Staking.sol",
  "abi": [
    {
      "inputs": [
        {
          "internalType": "address",
          "name": "_stakingToken",
          "type": "address"
        },
        {
          "internalType": "address",
          "name": "_rewardToken",
          "type": "address"
        }
      ],
      "stateMutability": "nonpayable",
      "type": "constructor"
    },
    {
      "inputs": [],
      "name": "Staking__NeedMoreThanZero",
      "type": "error"
    },
    {
      "inputs": [],
      "name": "Staking__TransferFailed",
      "type": "error"
    },
    {
      "anonymous": false,
      "inputs": [
        {
          "indexed": true,
          "internalType": "address",
          "name": "user",
          "type": "address"
        },
        {
          "indexed": true,
          "internalType": "uint256",
          "name": "amount",
          "type": "uint256"
        }
      ],
      "name": "RewardsClaimed",
      "type": "event"
    },
    {
      "anonymous": false,
      "inputs": [
        {
          "indexed": true,
          "internalType": "address",
          "name": "user",
          "type": "address"
        },
        {
          "indexed": true,
          "internalType": "uint256",
          "name": "amount",
          "type": "uint256"
        }
      ],
      "name": "Staked",
      "type": "event"
    },
    {
      "anonymous": false,
      "inputs": [
        {
          "indexed": true,
          "internalType": "address",
          "name": "user",
          "type": "address"
        },
        {
          "indexed": true,
          "internalType": "uint256",
          "name": "amount",
          "type": "uint256"
        }
      ],
      "name": "WithdrewStake",
      "type": "event"
    },
    {
      "inputs": [],
      "name": "REWARD_RATE",
      "outputs": [
        {
          "internalType": "uint256",
          "name": "",
          "type": "uint256"
        }
      ],
      "stateMutability": "view",
      "type": "function"
    },
    {
      "inputs": [],
      "name": "claimReward",
      "outputs": [],
      "stateMutability": "nonpayable",
      "type": "function"
    },
    {
      "inputs": [
        {
          "internalType": "address",
          "name": "_account",
          "type": "address"
        }
      ],
      "name": "earned",
      "outputs": [
        {
          "internalType": "uint256",
          "name": "",
          "type": "uint256"
        }
      ],
      "stateMutability": "view",
      "type": "function"
    },
    {
      "inputs": [
        {
          "internalType": "address",
          "name": "_account",
          "type": "address"
        }
      ],
      "name": "getStaked",
      "outputs": [
        {
          "internalType": "uint256",
          "name": "",
          "type": "uint256"
        }
      ],
      "stateMutability": "view",
      "type": "function"
    },
    {
      "inputs": [],
      "name": "rewardPerToken",
      "outputs": [
        {
          "internalType": "uint256",
          "name": "",
          "type": "uint256"
        }
      ],
      "stateMutability": "view",
      "type": "function"
    },
    {
      "inputs": [
        {
          "internalType": "address",
          "name": "",
          "type": "address"
        }
      ],
      "name": "s_balances",
      "outputs": [
        {
          "internalType": "uint256",
          "name": "",
          "type": "uint256"
        }
      ],
      "stateMutability": "view",
      "type": "function"
    },
    {
      "inputs": [],
      "name": "s_lastUpdateTime",
      "outputs": [
        {
          "internalType": "uint256",
          "name": "",
          "type": "uint256"
        }
      ],
      "stateMutability": "view",
      "type": "function"
    },
    {
      "inputs": [],
      "name": "s_rewardPerTokenStored",
      "outputs": [
        {
          "internalType": "uint256",
          "name": "",
          "type": "uint256"
        }
      ],
      "stateMutability": "view",
      "type": "function"
    },
    {
      "inputs": [],
      "name": "s_rewardToken",
      "outputs": [
        {
          "internalType": "contract IERC20",
          "name": "",
          "type": "address"
        }
      ],
      "stateMutability": "view",
      "type": "function"
    },
    {
      "inputs": [
        {
          "internalType": "address",
          "name": "",
          "type": "address"
        }
      ],
      "name": "s_rewards",
      "outputs": [
        {
          "internalType": "uint256",
          "name": "",
          "type": "uint256"
        }
      ],
      "stateMutability": "view",
      "type": "function"
    },
    {
      "inputs": [],
      "name": "s_stakingToken",
      "outputs": [
        {
          "internalType": "contract IERC20",
          "name": "",
          "type": "address"
        }
      ],
      "stateMutability": "view",
      "type": "function"
    },
    {
      "inputs": [],
      "name": "s_totalSupply",
      "outputs": [
        {
          "internalType": "uint256",
          "name": "",
          "type": "uint256"
        }
      ],
      "stateMutability": "view",
      "type": "function"
    },
    {
      "inputs": [
        {
          "internalType": "address",
          "name": "",
          "type": "address"
        }
      ],
      "name": "s_userRewardPerTokenPaid",
      "outputs": [
        {
          "internalType": "uint256",
          "name": "",
          "type": "uint256"
        }
      ],
      "stateMutability": "view",
      "type": "function"
    },
    {
      "inputs": [
        {
          "internalType": "uint256",
          "name": "_amount",
          "type": "uint256"
        }
      ],
      "name": "stake",
      "outputs": [],
      "stateMutability": "nonpayable",
      "type": "function"
    },
    {
      "inputs": [
        {
          "internalType": "uint256",
          "name": "_amount",
          "type": "uint256"
        }
      ],
      "name": "withDraw",
      "outputs": [],
      "stateMutability": "nonpayable",
      "type": "function"
    }
  ],
  "bytecode": "0x608060405260646006553480156200001657600080fd5b50604051620013ae380380620013ae83398181016040528101906200003c9190620000e5565b600160008190555081600160006101000a81548173ffffffffffffffffffffffffffffffffffffffff021916908373ffffffffffffffffffffffffffffffffffffffff16021790555080600260006101000a81548173ffffffffffffffffffffffffffffffffffffffff021916908373ffffffffffffffffffffffffffffffffffffffff16021790555050506200017f565b600081519050620000df8162000165565b92915050565b60008060408385031215620000ff57620000fe62000160565b5b60006200010f85828601620000ce565b92505060206200012285828601620000ce565b9150509250929050565b6000620001398262000140565b9050919050565b600073ffffffffffffffffffffffffffffffffffffffff82169050919050565b600080fd5b62000170816200012c565b81146200017c57600080fd5b50565b61121f806200018f6000396000f3fe608060405234801561001057600080fd5b50600436106100f45760003560e01c80636aa0838f11610097578063b88a802f11610066578063b88a802f14610275578063bea081511461027f578063cd3daf9d146102af578063f245ace4146102cd576100f4565b80636aa0838f146101ed578063a694fc3a1461020b578063ab32eb6914610227578063adca9b7214610257576100f4565b8063399080ec116100d3578063399080ec146101635780635997bb37146101935780636374cc00146101b15780636a74a0fc146101cf576100f4565b80628cc262146100f957806314174f3314610129578063304ac91b14610145575b600080fd5b610113600480360381019061010e9190610de7565b6102fd565b6040516101209190610f59565b60405180910390f35b610143600480360381019061013e9190610e41565b610416565b005b61014d6106b6565b60405161015a9190610f59565b60405180910390f35b61017d60048036038101906101789190610de7565b6106bc565b60405161018a9190610f59565b60405180910390f35b61019b610705565b6040516101a89190610f59565b60405180910390f35b6101b961070b565b6040516101c69190610f1e565b60405180910390f35b6101d7610731565b6040516101e49190610f59565b60405180910390f35b6101f5610737565b6040516102029190610f59565b60405180910390f35b61022560048036038101906102209190610e41565b61073d565b005b610241600480360381019061023c9190610de7565b610a1c565b60405161024e9190610f59565b60405180910390f35b61025f610a34565b60405161026c9190610f1e565b60405180910390f35b61027d610a5a565b005b61029960048036038101906102949190610de7565b610d14565b6040516102a69190610f59565b60405180910390f35b6102b7610d2c565b6040516102c49190610f59565b60405180910390f35b6102e760048036038101906102e29190610de7565b610d90565b6040516102f49190610f59565b60405180910390f35b600080600360008473ffffffffffffffffffffffffffffffffffffffff1673ffffffffffffffffffffffffffffffffffffffff1681526020019081526020016000205490506000600460008573ffffffffffffffffffffffffffffffffffffffff1673ffffffffffffffffffffffffffffffffffffffff1681526020019081526020016000205490506000610390610d2c565b90506000600560008773ffffffffffffffffffffffffffffffffffffffff1673ffffffffffffffffffffffffffffffffffffffff16815260200190815260200160002054905080670de0b6b3a764000084846103ec9190611066565b866103f7919061100c565b6104019190610fdb565b61040b9190610f85565b945050505050919050565b3361041f610d2c565b60088190555042600981905550610435816102fd565b600560008373ffffffffffffffffffffffffffffffffffffffff1673ffffffffffffffffffffffffffffffffffffffff16815260200190815260200160002081905550600854600460008373ffffffffffffffffffffffffffffffffffffffff1673ffffffffffffffffffffffffffffffffffffffff1681526020019081526020016000208190555060026000541415610504576040517f08c379a00000000000000000000000000000000000000000000000000000000081526004016104fb90610f39565b60405180910390fd5b600260008190555081600360003373ffffffffffffffffffffffffffffffffffffffff1673ffffffffffffffffffffffffffffffffffffffff168152602001908152602001600020600082825461055b9190611066565b9250508190555081600760008282546105749190611066565b92505081905550813373ffffffffffffffffffffffffffffffffffffffff167f4cb6da433ea55f6e302b7bdbfeed740816a42301cde7f5bac5dff2b34037637460405160405180910390a36000600160009054906101000a900473ffffffffffffffffffffffffffffffffffffffff1673ffffffffffffffffffffffffffffffffffffffff1663a9059cbb33856040518363ffffffff1660e01b815260040161061e929190610ef5565b602060405180830381600087803b15801561063857600080fd5b505af115801561064c573d6000803e3d6000fd5b505050506040513d601f19601f820116820180604052508101906106709190610e14565b9050806106a9576040517feb4c684700000000000000000000000000000000000000000000000000000000815260040160405180910390fd5b5060016000819055505050565b60085481565b6000600360008373ffffffffffffffffffffffffffffffffffffffff1673ffffffffffffffffffffffffffffffffffffffff168152602001908152602001600020549050919050565b60065481565b600260009054906101000a900473ffffffffffffffffffffffffffffffffffffffff1681565b60075481565b60095481565b33610746610d2c565b6008819055504260098190555061075c816102fd565b600560008373ffffffffffffffffffffffffffffffffffffffff1673ffffffffffffffffffffffffffffffffffffffff16815260200190815260200160002081905550600854600460008373ffffffffffffffffffffffffffffffffffffffff1673ffffffffffffffffffffffffffffffffffffffff168152602001908152602001600020819055506002600054141561082b576040517f08c379a000000000000000000000000000000000000000000000000000000000815260040161082290610f39565b60405180910390fd5b600260008190555081600081141561086f576040517ffc89637d00000000000000000000000000000000000000000000000000000000815260040160405180910390fd5b82600360003373ffffffffffffffffffffffffffffffffffffffff1673ffffffffffffffffffffffffffffffffffffffff16815260200190815260200160002060008282546108be9190610f85565b9250508190555082600760008282546108d79190610f85565b92505081905550823373ffffffffffffffffffffffffffffffffffffffff167f9e71bc8eea02a63969f509818f2dafb9254532904319f9dbda79b67bd34a5f3d60405160405180910390a36000600160009054906101000a900473ffffffffffffffffffffffffffffffffffffffff1673ffffffffffffffffffffffffffffffffffffffff166323b872dd3330876040518463ffffffff1660e01b815260040161098393929190610ebe565b602060405180830381600087803b15801561099d57600080fd5b505af11580156109b1573d6000803e3d6000fd5b505050506040513d601f19601f820116820180604052508101906109d59190610e14565b905080610a0e576040517feb4c684700000000000000000000000000000000000000000000000000000000815260040160405180910390fd5b505060016000819055505050565b60036020528060005260406000206000915090505481565b600160009054906101000a900473ffffffffffffffffffffffffffffffffffffffff1681565b33610a63610d2c565b60088190555042600981905550610a79816102fd565b600560008373ffffffffffffffffffffffffffffffffffffffff1673ffffffffffffffffffffffffffffffffffffffff16815260200190815260200160002081905550600854600460008373ffffffffffffffffffffffffffffffffffffffff1673ffffffffffffffffffffffffffffffffffffffff1681526020019081526020016000208190555060026000541415610b48576040517f08c379a0000000000000000000000000000000000000000000000000000000008152600401610b3f90610f39565b60405180910390fd5b60026000819055506000600560003373ffffffffffffffffffffffffffffffffffffffff1673ffffffffffffffffffffffffffffffffffffffff1681526020019081526020016000205490506000600560003373ffffffffffffffffffffffffffffffffffffffff1673ffffffffffffffffffffffffffffffffffffffff16815260200190815260200160002081905550803373ffffffffffffffffffffffffffffffffffffffff167ffc30cddea38e2bf4d6ea7d3f9ed3b6ad7f176419f4963bd81318067a4aee73fe60405160405180910390a36000600260009054906101000a900473ffffffffffffffffffffffffffffffffffffffff1673ffffffffffffffffffffffffffffffffffffffff1663a9059cbb33846040518363ffffffff1660e01b8152600401610c7c929190610ef5565b602060405180830381600087803b158015610c9657600080fd5b505af1158015610caa573d6000803e3d6000fd5b505050506040513d601f19601f82011682018060405250810190610cce9190610e14565b905080610d07576040517feb4c684700000000000000000000000000000000000000000000000000000000815260040160405180910390fd5b5050600160008190555050565b60056020528060005260406000206000915090505481565b6000806007541415610d42576008549050610d8d565b600754670de0b6b3a764000060065460095442610d5f9190611066565b610d69919061100c565b610d73919061100c565b610d7d9190610fdb565b600854610d8a9190610f85565b90505b90565b60046020528060005260406000206000915090505481565b600081359050610db7816111a4565b92915050565b600081519050610dcc816111bb565b92915050565b600081359050610de1816111d2565b92915050565b600060208284031215610dfd57610dfc611176565b5b6000610e0b84828501610da8565b91505092915050565b600060208284031215610e2a57610e29611176565b5b6000610e3884828501610dbd565b91505092915050565b600060208284031215610e5757610e56611176565b5b6000610e6584828501610dd2565b91505092915050565b610e778161109a565b82525050565b610e86816110e2565b82525050565b6000610e99601f83610f74565b9150610ea48261117b565b602082019050919050565b610eb8816110d8565b82525050565b6000606082019050610ed36000830186610e6e565b610ee06020830185610e6e565b610eed6040830184610eaf565b949350505050565b6000604082019050610f0a6000830185610e6e565b610f176020830184610eaf565b9392505050565b6000602082019050610f336000830184610e7d565b92915050565b60006020820190508181036000830152610f5281610e8c565b9050919050565b6000602082019050610f6e6000830184610eaf565b92915050565b600082825260208201905092915050565b6000610f90826110d8565b9150610f9b836110d8565b9250827fffffffffffffffffffffffffffffffffffffffffffffffffffffffffffffffff03821115610fd057610fcf611118565b5b828201905092915050565b6000610fe6826110d8565b9150610ff1836110d8565b92508261100157611000611147565b5b828204905092915050565b6000611017826110d8565b9150611022836110d8565b9250817fffffffffffffffffffffffffffffffffffffffffffffffffffffffffffffffff048311821515161561105b5761105a611118565b5b828202905092915050565b6000611071826110d8565b915061107c836110d8565b92508282101561108f5761108e611118565b5b828203905092915050565b60006110a5826110b8565b9050919050565b60008115159050919050565b600073ffffffffffffffffffffffffffffffffffffffff82169050919050565b6000819050919050565b60006110ed826110f4565b9050919050565b60006110ff82611106565b9050919050565b6000611111826110b8565b9050919050565b7f4e487b7100000000000000000000000000000000000000000000000000000000600052601160045260246000fd5b7f4e487b7100000000000000000000000000000000000000000000000000000000600052601260045260246000fd5b600080fd5b7f5265656e7472616e637947756172643a207265656e7472616e742063616c6c00600082015250565b6111ad8161109a565b81146111b857600080fd5b50565b6111c4816110ac565b81146111cf57600080fd5b50565b6111db816110d8565b81146111e657600080fd5b5056fea26469706673582212207a382a147be99250e799a8a262bee04c074ae3fc68005bd3ebf90d56d1607b9a64736f6c63430008070033",
  "linkReferences": {},
  "deployedLinkReferences": {}
}